S00A000053572E7372656370
S11300000C942A000C9434000C9434000C943400A6
S11300100C9434000C9434000C9434000C9434008C
S11300200C9434000C9434000C9434000C9434007C
S11300300C9434000C9434000C9434000C9434006C
S11300400C9434000C9434000C9434000C9434005C
S11300500C94340011241FBECFE5D8E0DEBFCDBF21
S11300600E9498010C94EE010C9400004130A1F51B
S1130070813089F028F08230C9F0833011F108957D
S11300802AB381E090E002C0880F991F6A95E2F7D5
S1130090822B8ABB089527B381E090E002C0880FC9
S11300A0991F6A95E2F7822B87BB089524B381E0F8
S11300B090E002C0880F991F6A95E2F7822B84BBF7
S11300C0089521B381E090E002C0880F991F6A95DA
S11300D0E2F7822B81BB0895411137C0813091F042
S11300E028F08230D9F0833029F108952AB381E0D1
S11300F090E002C0880F991F6A95E2F780958223E9
S11301008ABB089527B381E090E002C0880F991F4D
S11301106A95E2F78095822387BB089524B381E032
S113012090E002C0880F991F6A95E2F780958223B8
S113013084BB089521B381E090E002C0880F991F29
S11301406A95E2F78095822381BB08954130A1F539
S1130150813089F028F08230C9F0833011F108959C
S11301602BB381E090E002C0880F991F6A95E2F7F3
S1130170822B8BBB089528B381E090E002C0880FE6
S1130180991F6A95E2F7822B88BB089525B381E015
S113019090E002C0880F991F6A95E2F7822B85BB15
S11301A0089522B381E090E002C0880F991F6A95F8
S11301B0E2F7822B82BB0895411137C0813091F060
S11301C028F08230D9F0833029F108952BB381E0EF
S11301D090E002C0880F991F6A95E2F78095822308
S11301E08BBB089528B381E090E002C0880F991F6B
S11301F06A95E2F78095822388BB089525B381E050
S113020090E002C0880F991F6A95E2F780958223D7
S113021085BB089522B381E090E002C0880F991F46
S11302206A95E2F78095822382BB08958130D1F0EC
S113023028F0823059F18330E9F150C049B381E0AC
S113024090E09C01062E02C0220F331F0A94E2F7AD
S1130250842F90E08223932302C0959587956A9515
S1130260E2F7089546B381E090E09C01062E02C0B7
S1130270220F331F0A94E2F7842F90E08223932302
S113028002C0959587956A95E2F7089543B381E096
S113029090E09C01062E02C0220F331F0A94E2F75D
S11302A0842F90E08223932302C0959587956A95C5
S11302B0E2F7089540B381E090E09C01062E02C06D
S11302C0220F331F0A94E2F7842F90E082239323B2
S11302D002C0959587956A95E2F7089580E00895A0
S11302E0862F672F41E00E9436000895962F8130B3
S11302F031F441E0672F892F0E94A60008958111EF
S113030005C040E0672F892F0E94A6000895962F0C
S1130310813031F440E0672F892F0E94A6000895B0
S1130320811105C041E0672F892F0E94A60008951E
S1130330E12C6894FF24F1F801E010E0D0E0C2E081
S113034060E070E082E00E94BF0160E072E081E062
S11303500E947001612F7D2F8C2F0E94D501813066
S113036031F46E2D7F2D802F0E947601F3CF811101
S1130370F1CF6E2D7F2D802F0E948701EBCF1F932D
S1130380CF93DF93C62FD72F182F40E0672F8C2FE2
S11303900E943600111105C041E06D2F8C2F0E9480
S11303A0A600DF91CF911F910895962F823048F4D3
S11303B0672F892F0E941601882351F0813069F438
S11303C009C0823049F4672F892F0E9416010895CD
S11303D081E0089580E0089580E00895F894FFCFC7
S9030000FC
